:0200000400F00A
:1000000000009C017C040000110180000000000041
:1000100074747474747474747474747474747474A0
:100020007474747474747474747474747474747490
:100030007474747474747474747474747474747480
:100040007474747474747474747474747474747470
:100050007474747474747474747474747474747460
:100060007474747474747474747474747474747450
:100070007474747474747474747474747474747440
:100080007474747474747474747474747474747430
:100090007474747474747474747474747474747420
:1000A0007474747474747474747474747474747410
:1000B0007474747474747474747474747474747400
:1000C00074747474747474747474747474747474F0
:1000D00074747474747474747474747474747474E0
:1000E00074747474A0A0A0A0A0A0A0A0A0A0A0A0C0
:1000F000A0A0A0A0A0A0A0A0A0A0A0A0A0A0A0A000
:1001000073747474747474747474747474747474B0
:10011000747474747474747475747575747574000F
:10012000070E141A20252A2E33373B3E4345494AF1
:100130004D4F52545658595B5D5E60616264646510
:1001400066676869696A6B6B6C6C6D6D6E6E6F6FFC
:100150006F7070707071717171727272727272728E
:1001600073737373737373737373B9BABBBCBDBEAC
:10017000505050505050505050505050505050507F
:10018000747474747474747474747474747474742F
:10019000757474747475747474757474757474741B
:1001A000747474747474747474757474747575750B
:1001B00074747474747475747574747575747475FA
:1001C00074747475747474757575757474747475E9
:1001D00074747475747474757574757474747474DB
:1001E00074747474747474757474B9BABBBCBDBE21
:1001F00050505050505050505050505050505050FF
:100200006F74797E8285888B8C8D8C8B8885827EBD
:1002100000000000000000000000000000000000DE
:1002200000000000000000000000000000000000CE
:1002300000000000000000000000000000000000BE
:1002400000000000000000000000000000000000AE
:10025000000000000000000000000000000000009E
:10026000000000000000000000000000000000008E
:10027000000000000000000000000000000000007E
:10028000000000000000000000000000000000006E
:10029000000000000000000000000000000000005E
:1002A000000000000000000000000000000000004E
:1002B000000000000000000000000000000000003E
:1002C000000000000000000000000000000000002E
:1002D000000000000000000000000000000000001E
:1002E000000000000000000000000000000000000E
:1002F00000000000000000000000000000000000FE
:1003000000000000000000000000000000000000ED
:1003100000000000000000000000000000000000DD
:1003200000000000000000000000000000000000CD
:1003300000000000000000000000000000000000BD
:1003400000000000000000000000000000000000AD
:10035000000000000000000000000000000000009D
:10036000000000000000000000006564636262613C
:10037000000000000000000000000000000000007D
:10038000000000000000000000000000000000006D
:10039000000000000000000000000000000000005D
:1003A000000000000000000000000000000000004D
:1003B000000000000000000000000000000000003D
:1003C000000000000000000000000000000000002D
:1003D000000000000000000000000000000000001D
:1003E00000000000000000000000656463626261BC
:1003F00000000000000000000000000000000000FD
:00000001FF

